:020000022000DC
:107000000000042001A4030041A4030043A40300E2
:1070100045A4030047A4030049A4030000000000A6
:107020000000000000000000000000007DA303003D
:107030004DA40300000000009DA3030051A4030021
:1070400055A6030053A4030053A4030053A4030054
:1070500053A4030053A4030053A4030053A4030048
:1070600053A4030053A4030053A4030053A4030038
:1070700053A4030053A4030053A4030053A4030028
:1070800053A40300CDA0030053A4030053A40300A2
:1070900053A4030053A4030099C5020053A40300A2
:1070A00053A4030053A4030053A4030053A40300F8
:1070B00053A4030053A403000000000000000000DC
:1070C00053A4030053A4030053A4030053A40300D8
:1070D00053A4030053A4030053A4030069DD02007A
:1070E00053A4030053A4030053A4030000000000B2
:1070F0000000000053A403000000000053A403009C
:10710000000000000000000000000000000000007F
:10711000000000000000000000000000000000006F
:10712000000000000000000000000000000000005F
:10713000000000000000000000000000000000004F
:10714000000000000000000000000000000000003F
:10715000000000000000000000000000000000002F
:10716000000000000000000000000000000000001F
:10717000000000000000000000000000000000000F
:1071800000000000000000000000000000000000FF
:1071900000000000000000000000000000000000EF
:1071A00000000000000000000000000000000000DF
:1071B00000000000000000000000000000000000CF
:1071C00000000000000000000000000000000000BF
:1071D00000000000000000000000000000000000AF
:1071E000000000000000000000000000000000009F
:1071F000000000000000000000000000000000008F
:10720000F1EE103A43F08073E1EE103A704700BFA0
:1072100010B5054C237833B9044B13B10448AFF3D0
:1072200000800123237010BDB06300200000000027
:107230005C6A040008B5034B1BB103490348AFF374
:10724000008008BD00000000B46300205C6A0400F8
:10725000154B002B08BF134B9D46A3F5803A002128
:107260008B460F461348144A121A18F02FFD0F4B85
:10727000002B00D098470E4B002B00D098470020E1
:10728000002104000D000D48002802D00C48AFF387
:10729000008018F0B1FC2000290013F009F918F063
:1072A00085FC00BF00000800000004200000000072
:1072B00000000000B063002064060220000000000F
:1072C0000000000031DF70470278F0B4054662B17B
:1072D00000233F2611060CD45A1C01214B1E52FAE2
:1072E00083F3C5182A78002AF4D100232B70F0BC50
:1072F000704702F13E01C9B21D290FD802215A1C64
:107300001746845C00EB020C002CEED004F0C004A5
:10731000802C0ED02E703B466546E3E702F120013B
:10732000C9B20F291AD91032D2B2042A18D80421AE
:10733000E5E70229D2D003449C78002CEAD004F07F
:10734000C004802CE6D10329C8D0DB78002BE1D023
:1073500003F0C003802BDDD10421BFE70321CEE77A
:107360005F1C00EB070CD5E7002847D0F0B44FF0C6
:10737000200C451E5C27002015F8013FB3B1441CCA
:10738000944213D2222B16D05C2B14D00A2B25D07A
:107390000D2B1BD0092B29D01F2B94BF01F800C047
:1073A0000B5415F8013F2046002BE8D1014400237F
:1073B000F0BC0B707047861CB24203D90F540B55BA
:1073C0003046D9E70A2BF1D00D2BE3D1861C96422B
:1073D000ECD272230F540B553046CDE7861CB242D7
:1073E000E4D96E230F540B553046C5E7861CB242D4
:1073F000DCD974230F540B553046BDE700230B70C6
:10740000704700BF30B52449244A254B254D002440
:1074100085B028800C7014701C7010F0C3FC2249D9
:10742000224B234D0222FA301A70086010F0BAFC89
:10743000204A214913682C60204D08600133042143
:1074400003A803942C701360FFF73CFFC0B91C4DD8
:10745000039B29681B4A1C480131009129601221B5
:1074600019F0BAFA194A1A4B10680021197008B1BC
:1074700010F012FD1749184810F0C8FB05B030BDD8
:107480004FF080530E4D1C6E10F08CFC29684C4060
:1074900084EA00030393DDE7D6630020D86500206B
:1074A000D563002040600020087B0020047A002083
:1074B000D06300200C7B00201CBF0120D46300207F
:1074C00018BF0120E83104004860002028CA0120CC
:1074D00021BF0120F4310400C4DC01202D4A2E48D4
:1074E000DFF8F0C0F8B500242C4B14602C4A1C7057
:1074F00004702C4B2C4F2D4E8CF800404FF6FF7033
:1075000010800D460B20012119703C70346013F07F
:10751000F7FBAB1F264ADBB2372B147020D9254B63
:10752000254918465F220E4619F0F1FA80F85F40AF
:1075300010F038FC0346214A21492248136010F01C
:1075400037FB294610221F4810F0F4FB1E491D4846
:1075500010F02EFB31461B48BDE8F84010F056BB3A
:107560001A4A52F82360134B46B9184618495F224D
:1075700019F0CDFA334680F85F60DCE718465F22E9
:10758000314619F0C4FA80F85F403378002BD2D02E
:10759000CEE700BFD063002020BF0120D4630020CD
:1075A00040600020047A0020D8650020007A002086
:1075B00021BF01209C79002020320400FC790020AA
:1075C00028320400C4DC01203C3204005C3D04008D
:1075D00044470400D663002038B51F4801F072FD0F
:1075E0001E4801F06FFD06211B4801F057FD1A48A7
:1075F00001F03CFD1A49184801F0D4FC174801F08D
:1076000007FD1548012101F083FD1348F4222021D4
:1076100001F076FD10481E2101F070FD0E4800219A
:1076200001F0D6FD68B10F4B0F4C104A10491148BC
:1076300001251D70002323601370BDE8384010F051
:10764000E5BA10F0AFFB084B0B4902461A60094837
:10765000BDE8384010F0DABA8CDA0120C8DA01202F
:10766000DC650020047A0020D0630020D463002071
:1076700040320400C4DC0120683204002DE9F04FE0
:10768000074683B0002859D00078002856D0DFF88C
:107690003CA1DAF80000002850D088466621154643
:1076A00011F006F901284CD1DFF824B100245B4623
:1076B00002E00134202C5AD01E7803F52263002EFC
:1076C000F7D14FF4226202FB04F40BEB04094846A5
:1076D000314618F0FBFA40F6FE11384619F02AFA46
:1076E000034603F1010C04F10C00A9F81EC0294661
:1076F000C9F804800125112258440BF80450019365
:1077000019F005FA019B04F1200039461A46584445
:1077100018F0B4FA254F019B3C78DAF80000994440
:107720004FF00A0C2C4433463246314689F821602A
:1077300089F820C03C7010F093FC284603B0BDE8E7
:10774000F08F1B4D1B4C2B681B4901332B605F22B4
:107750000025204619F0DBF984F85F5010F022FB79
:10776000164B024628461A6003B0BDE8F08F00238E
:107770000F4DDAF800000F4C1A46194610F070FC55
:107780002B680F4901332B605F220025204619F03A
:10779000BEF984F85F5010F005FB084B094902461A
:1077A00009481A6010F032FA2846C7E714BF0120D2
:1077B000946700209C790020A8320400FC79002006
:1077C000C4320400D8320400C4DC012010BF012000
:1077D000107B00202DE9F047454D2B6863B14548EB
:1077E00004F0A8FE40B1444B1B782BB1286800215F
:1077F00011F05EF8012801D0BDE8F08710F0D2FA50
:107800003E4B002403F5A23108E05E6862689642B0
:1078100038BF1C4603F52263994206D01A78002A25
:10782000F8D0002CF1D11C46F4E7002C49D0A36815
:10783000002B4ED1DFF8E8A001289AF8003038BFBD
:107840000120A06043B12E492E48012202F03CF9EC
:1078500010B300238AF80030E78B3B46B7F5206F62
:1078600028BF4FF42067002B38D004F12008DFF840
:107870009490B8443E4601E0BB422FD2B42E32462B
:1078800028BFB422A8EB060192B2484602F01CF9C8
:10789000B43EBB1B0028EFD11B4B1C4901221846EC
:1078A0008AF800205F2219F032F9002280F85F2068
:1078B00010F078FA164B1749024617481A6010F074
:1078C000A5F9002328681A46BDE8F047194610F0CC
:1078D000C7BBC31AB3F5FA6FF3D3ABE76378002BDA
:1078E000EFD10E4A136801210B4413606170E8E781
:1078F00010BF01204CD40120D8650020107B00204F
:10790000423E04003C6700209C79002004330400C0
:10791000FC7900201C330400C4DC0120986F002097
:1079200021BF01202DE9F041DFF88C80D8F800302C
:107930001BB1064608B102780AB9BDE8F0810F46CE
:107940001846662110F0B4FF0128F6D1164C002528
:1079500004E00135202D04F522641CD014F80C3C01
:10796000002BF6D054F8083C9F42F2D13146204615
:1079700019F0A2F80028ECD10C4A0D494FF422630B
:1079800003FB05F5137848550BB1013B1370094A09
:107990001368013313600023D8F800001A46BDE8CD
:1079A000F041194610F05CBB1C7B002014BF012085
:1079B000107B0020CC63002010BF01202DE9F04F88
:1079C000F9B000240E4683462146BC2219A818AD02
:1079D0002C6018F07BF92146BC2249A848940DF58B
:1079E000907818F073F930462946C022FFF7BCFCA6
:1079F000C0224548DFF860A1DFF86091434F444C56
:107A00004146FFF7B1FC434BDFF854E11B78424994
:107A10004248052B9BBFDAB2414B424B53F8223010
:107A20001693414B414A93F800C0DAF800301293A4
:107A3000D9F80030167813933D4ADEF800301493DD
:107A40003C4B126891F800A0396893F800901792A7
:107A5000002E14BF264606461591BCF1000F08BF44
:107A6000044610F09FF9344F179A129B334905963C
:107A700084460C921498139A07930291169B1599B9
:107A80002F4E06940990089203930F910223CDE99B
:107A900000B52C4A0496202438464FF42061CDF8D6
:107AA00034A0CDF82890CDF838800B94CDF840C0A4
:107AB00018F092FF3B78EBB1234B1E68D6B140F62D
:107AC000FE11384619F036F8204D04462846631C4E
:107AD000224620F8023B394618F0D0F82C44002307
:107AE000294630460A251A46A570E37010F0B8FA08
:107AF000012802D179B0BDE8F08F1549154810F082
:107B000085F879B0BDE8F08F9C790020FC790020E1
:107B100044330400047A0020D56300204C33040071
:107B2000443D040020320400D8650020D6630020C4
:107B30000C7B002014BF01209C6F00203C3E040001
:107B4000486000205433040028CA01202CCA0120B8
:107B500088320400C4DC0120986F0020CC63002030
:107B600094670020002A174B14BF012200221A70CC
:107B700023D010B5144C1549154810F047F820686B
:107B8000A8B1662110F094FE012810D1114B0020FD
:107B900003F5A2311A7802B1986003F52263994285
:107BA000F8D1002320681A46194610F059FABDE8AA
:107BB000104009490948FFF701BF0949044810F07E
:107BC00025B800BFD865002010BF01208C34040008
:107BD000C4DC0120107B0020A4340400BC34040069
:107BE000CC3404002DE9F0413B48C4B002F066FA01
:107BF00028B1394804F0C4FD0446002855D137495E
:107C0000374B384E002403221A700C7010F0CAF85B
:107C1000354B049400F2DC50186004AD2146FC2280
:107C200005A818F053F829464FF480722F48FFF743
:107C30009BFB10F0B7F82E4A2E4BCDE90250CDE950
:107C40000032304602232C4A4FF4206118F0C4FE63
:107C5000337803B3294BD3F80080B8F1000F1AD062
:107C600040F6FE11304618F065FF254F05463846B0
:107C70006B1C31462A4620F8023B3D4417F0FEFFBC
:107C80000A263946404623462246EC70AE7010F074
:107C9000E7F9012804D10024204644B0BDE8F08172
:107CA000184919480FF0B2FFF5E70C490C4B0522B3
:107CB00001201A70087010F075F8144B1449024630
:107CC00011481A600FF0A2FF12491348FFF776FE21
:107CD000204644B0BDE8F081DC650020D66300207A
:107CE000047A00209C6F0020087B0020E43404000C
:107CF00058350400D43B04000835040028CA01208C
:107D00002CCA012088320400C4DC01201CBF0120E1
:107D10006C35040090350400A835040038B50146E0
:107D200004461F4804F030FC002833D0054602F01A
:107D30003FFA80B11B4B1B781BB11B4B1B78052BEB
:107D400008D02146164804F01FFC044610B102F08A
:107D50002BFAB0B938BD154915480FF057FF124B33
:107D600004221A7010F01EF8124B024628461A60C0
:107D700002F0A2FA0028EDD12846BDE8384002F012
:107D800033BA204602F014FA0028E3D0BDE83840A8
:107D9000FFF728BFBDE83840074905480FF036BF58
:107DA0004CD40120D6630020047A0020E43504007E
:107DB000C4DC01201CBF0120B435040070B50C46A2
:107DC00005461C491C480FF0F3FE214610221A48B4
:107DD0000FF0B8FF1948294604F0D6FB06464CB10F
:107DE000174915480FF012FF46B13046BDE8704004
:107DF00002F0FAB910B102F0DBF900B970BD114B15
:107E00001B781BB1104B1B78052BF7D00B4829466C
:107E100004F0BAFB04460028F0D002F0C5F90028AF
:107E2000ECD0204602F0C4F90028E7D0BDE870404D
:107E3000FFF7D8BE14360400C4DC01204CD4012066
:107E40002C360400D6630020047A00202DE9F0438C
:107E50000027C5B004AC904605460E46FC223946C4
:107E600005A8049717F032FF21464FF48072404670
:107E7000FFF77AFA0FF096FFDFF880901A4ACDE903
:107E800002400223CDE9005648464FF4206118F025
:107E9000A3FD99F80030EBB1144B1E68D6B140F643
:107EA000FE11484618F046FE114D04462846631C54
:107EB000224620F8023B2C44494617F0DFFE2946B3
:107EC00030460A253B463A46E770A57010F0C8F8E0
:107ED000012802D145B0BDE8F083064906480FF0FD
:107EE00095FE45B0BDE8F0830835040028CA01209E
:107EF0002CCA012088320400C4DC01209C6F0020C1
:107F000030B5A7B01D460021144606A87D22059174
:107F100017F0DCFE802D2A46214628BF802205A8C6
:107F200017F0ACFE2A4905A818F035FE68B32949B8
:107F300005A818F030FE044628B3274905A818F014
:107F40002AFE0346F8B1A01D00210A2203F10E0407
:107F500018F0B4FE0023054622212046CDE9003367
:107F600002930393ADF8103018F099FD58B1021B3D
:107F7000112A214628BF1122684617F07FFE2946A4
:107F80006846FFF7CFFC27B030BD144905A818F0AC
:107F900002FE0028CBD1124905A818F0FCFD58B10B
:107FA000104B114A1978114B1148002914BF114682
:107FB0001946FFF703FDE6E70E4905A818F0EBFDAB
:107FC0000028EDD10C490D4805AAFFF73FFFDAE77D
:107FD00084360400A8360400B03604009436040049
:107FE000C0360400D66300206436040070360400F6
:107FF000D0360400C8360400DC360400EC36040039
:108000002DE9F04F0F4683B00446002800F0FB80B6
:1080100090F800A0BAF1000F00F0F580732018F07E
:1080200057FE8146504618F053FE661C05464D45E6
:10803000307834D1C8B318F04BFE0546692018F0EB
:1080400047FE85422FD1707868B318F041FE804614
:108050006D2018F03DFE804525D1B07818B318F09A
:1080600037FE8046702018F033FE80451BD1F07833
:10807000C8B118F02DFE80466C2018F029FE80450E
:1080800011D1307978B118F023FE8046652018F0C0
:108090001FFE804507D1AC4803B0BDE8F08F20B18A
:1080A00018F016FE05460136C1E7002F4FD097F8AD
:1080B0000080B8F1000F46D0732018F009FE824608
:1080C000404618F005FE7E1C05465545307834D1F3
:1080D000C8B318F0FDFD0546692018F0F9FD85428A
:1080E00027D1707828B318F0F3FD81466D2018F081
:1080F000EFFD81451DD1B078D8B118F0E9FD81467A
:10810000702018F0E5FD814513D1F07888B118F0A2
:10811000DFFD81466C2018F0DBFD814509D1307907
:1081200038B118F0D5FD8146652018F0D1FD8145A4
:10813000B1D0013655453078CAD020B118F0C8FD0D
:1081400001360546F6E7002C66D094F800A0CDF87D
:1081500004A0BAF1000F5BD0622018F0B9FD83468D
:108160005046CDF800B018F0B3FD00250646009B40
:1081700005F101089E4214F808003CD1002847D0C0
:1081800018F0A6FD0646692018F0A2FD864238D1F7
:108190002544A878A8B318F09BFD81466E2018F0FE
:1081A00097FD81452DD1E87858B318F091FD8346AD
:1081B000612018F08DFD834523D1287908B318F08C
:1081C00087FD81451DD16879D8B118F081FD8146C0
:1081D000632018F07DFD814513D1A87988B118F08E
:1081E00077FD0546652018F073FD854209D1574893
:1081F00003B0BDE8F08F002800F0508118F068FD52
:1082000006464546B3E7002F7FF451AF504843E799
:10821000002F5ED097F80080B8F1000F52D0622096
:1082200018F056FD82464046CDF800A018F050FDEB
:1082300000250646009B05F101099E4217F809003A
:108240003AD100283ED018F043FD0646692018F0C8
:108250003FFD86422ED13D44A87858B318F038FD32
:1082600083466E2018F034FD834523D1E87808B3A7
:1082700018F02EFD8246612018F02AFD824519D1A2
:108280002879B8B118F024FD834513D1687988B1F5
:1082900018F01EFD8346632018F01AFD834509D1AE
:1082A000A87938B118F014FD0546652018F010FDC6
:1082B00085429CD04D46BDE720B118F009FD4D46E2
:1082C0000646B7E7002C00F0658194F800A0CDF8D1
:1082D00004A0BAF1000F3FD0622018F0F9FC8146EB
:1082E000504618F0F5FC661C05464D45307824D103
:1082F00090B318F0EDFC0546792018F0E9FC8542B2
:108300001FD17078E8B118F0E3FC814519D1B0783D
:10831000B8B118F0DDFC8046692018F0D9FC804522
:108320000FD1F07868B118F0D3FC8046742018F0B3
:10833000CFFC804505D10748AEE668B118F0C8FC0F
:1083400005460136D1E700BFF4360400FC360400D0
:108350000C37040004370400002F00F0278197F841
:108360000080B8F1000F36D0622018F0B1FC8246D0
:10837000404618F0ADFC7E1C05465545307824D1AA
:1083800048B318F0A5FC0546792018F0A1FC8542F9
:1083900019D17078B8B118F09BFC824513D1B07830
:1083A00088B118F095FC8146692018F091FC814550
:1083B00009D1F07838B118F08BFC8146742018F0A0
:1083C00087FC8145B7D00136D7E720B118F080FC93
:1083D00001360546D1E7002C00F0E08094F800A0BB
:1083E000CDF804A0BAF1000F26D06F2018F070FC71
:1083F0008146504618F06CFC661C0546A94530784D
:1084000014D1C8B118F064FC05466B2018F060FC6C
:1084100085420FD1707868B118F05AFC80467820F8
:1084200018F056FC804505D16C4835E620B118F0AF
:108430004FFC05460136E1E7002F00F0BC8097F8BD
:108440000080B8F1000F00F0BE806F2018F040FCF3
:108450008246404618F03CFC07F1010905464E46AD
:10846000AA45307814D1E8B118F032FC05466B20EB
:1084700018F02EFC854209D1707838B118F028FC2C
:108480008346782018F024FC8345CDD00136E7E7F9
:1084900040B118F01DFC01360546E1E7002F7FF4DE
:1084A000B9AE19E7002C41D023780193D3B36F20E4
:1084B00018F00EFC8046019818F00AFC01340546BD
:1084C0001DE020B318F004FC05466B2018F000FCFA
:1084D000854213D1607888B118F0FAFB0646652012
:1084E00018F0F6FB864209D1A07838B118F0F0FBFD
:1084F0000646782018F0ECFB864295D00134A8455A
:108500002078DED018B118F0E3FB0546F6E7002F1F
:108510003FF47CAE97F80080B8F1000F3FF476AEE0
:1085200007F101096F2018F0D3FB8246404618F08E
:10853000CFFB044623E000283FF468AE18F0C8FBE8
:1085400004466B2018F0C4FB844216D199F8010050
:1085500098B118F0BDFB0546652018F0B9FB8542BF
:108560000BD199F8020040B118F0B2FB0546782013
:1085700018F0AEFB85423FF457AF09F10109A2455F
:1085800099F80000D7D000283FF440AE18F0A0FBC7
:108590000446F2E7B8F1000F7FF4E6AE002F3FF497
:1085A00035AEB8F1000F7FF450AF2FE6BAF1000FEF
:1085B0007FF41BAF2AE6002C3FF428AEBAF1000F7F
:1085C0007FF475AF22E6002C3FF420AE5346CDF881
:1085D00004A0002B7FF46BAF18E600BF1437040033
:1085E000002845D02DE9F047224B804693E807004C
:1085F00084B001AE86E80700404618F080FA0DF11D
:1086000010090746022F2DD931780024434603254F
:108610001A788A4204F101020AD0BD4222D208EB44
:1086200002031446D51C1A788A4204F10102F4D1DF
:1086300093F801C07078844506F1010EEDD193F8EE
:1086400002C0B0788445E8D1BA1E121B184608EB68
:10865000050117F021FB033FA21CBA42034601D2D9
:108660003178D5E703364E45CCD104B0BDE8F0876C
:10867000704700BF383D04002DE9F04F0578022D0A
:108680008FB000F2B48083780B2B96BF644ADFF87A
:10869000C8B152F823B0022D044600F0AB80614B04
:1086A000614853F825300C934FF480752A46002119
:1086B00017F00CFB2A4600215C485D4E5D4FDFF849
:1086C0009C81DFF89C91DFF888A117F0FFFA2A4619
:1086D0000021594817F0FAFA2A460021574817F0A6
:1086E000F5FA4FF400720021304617F0EFFA4FF41C
:1086F00000720021384617F0E9FA4FF400720021A9
:10870000404617F0E3FA4FF400720021484617F094
:10871000DDFA6168444A4A482B4604F04DF8434B61
:10872000414900950022464804F038F86168424A01
:1087300043482B4604F092F82B4661683F4A404874
:1087400004F0E0F83848FEF7BFFD3848FEF7BCFDFE
:108750003948FEF7B9FD3948FEF7B6FD3648FFF750
:108760003FFF3648FFF73CFF2F4831464FF4007279
:10877000FEF7FAFD2D4839464FF40072FEF7F4FD7E
:108780002D4841464FF40072FEF7EEFD4FF40072A3
:108790002A484946FEF7E8FD24492348FFF730FC04
:1087A000284B62681C680D92611C196005460FF029
:1087B000F9FA0C9B0D9A0292CDE90335224A0A90F0
:1087C000CDE90889CDE9056720480194CDF81CB0B2
:1087D000CDF800A002234FF4206118F0FDF85246B6
:1087E0001A4821460FB0BDE8F04FFEF747BF0FB063
:1087F000BDE8F08F134B47681C68154E621C1A6069
:108800000FF0D0FA134A0096CDE903B0CDE9014745
:108810000E482B464FF4206118F0DEF83246DFE7B1
:108820000460002034600020D8630020D864002059
:1088300098670020986B002024BF0120087A002050
:10884000DC650020446000209C3704009C6F002001
:10885000486000202037040018370400986D00207D
:10886000986900202DE9F843594803F063FEA8B148
:10887000584C22884FF6FF739A420FD0564D2B78F2
:10888000052B0BD02B78042B43D0DFF88C810FF015
:1088900089FAD8F800309842064601D2BDE8F8833C
:1088A00021884B4803F070FE07460028F6D001F0FF
:1088B0007BFC0028F2D0DFF86491484999F8003039
:1088C00047480133032289F800302A700FF070F90D
:1088D0000A2299F8001042480FF02CFA414940480A
:1088E0000FF066F905213E480A220FF02BFA218885
:1088F0003D4804F0CFF818BB3C4939480FF086F9E1
:1089000099F80030042B57D806F2DC56C8F80060FE
:10891000C4E70FF047FA364B1A6843F69723801ADC
:108920009842BBD933492E480FF070F92188284866
:1089300003F02AFE0028B1D0BDE8F84301F054BC92
:108940002D4927480FF062F9384601F031FCC8B1D3
:108950002A4B21881B7813B12B78052B9ED01C48FD
:1089600003F012FE0446002898D001F01DFC0028F8
:1089700094D0204601F01CFC00288FD0BDE8F843BD
:10898000FFF730B904232B700FF00CFA184B1C4979
:10899000024613481A600FF039F9384601F08CFC92
:1089A00000287FF47BAF17490D480FF02FF93846A8
:1089B000BDE8F84301F018BC134909480FF026F947
:1089C0001248134A1349FFF741FA3846B4E700BF8B
:1089D0004CD4012040600020047A00207C38040040
:1089E000C4DC012094380400DC650020F438040065
:1089F0001CBF01205438040098380400D6630020BE
:108A0000A8380400CC3804000C390400D43B04001E
:108A1000443904006C390400087B0020D563002031
:108A20002DE9F0412C4C2368002B52D02B4803F049
:108A300081FD00284DD02A4B1B78002B49D020689F
:108A4000284900220FF0D8FD012842D1264F3B785B
:108A50003BB102462549264801F036F8F8B100231B
:108A60003B70204E35882B46B5F5206F28BF4FF45C
:108A7000206573B30236DFF878802E442C4601E07F
:108A80009D4226D9B42C224628BFB422311B92B273
:108A9000404601F019F8B43C2B1B0028F0D1154AD0
:108AA000154C1368154901331360204601235F22DA
:108AB0003B7018F02CF8002384F85F300FF072F947
:108AC0000F4B10490246BDE8F0410F481A600FF005
:108AD0009DB8BDE8F08100BF28CA01204CD4012018
:108AE000D865002024C0012021BF0120423E04009F
:108AF0003C670020946700209C790020883904009E
:108B0000FC790020A4390400C4DC012010B514490C
:108B1000044614480FF04CF8214612480FF076F83E
:108B2000052400210B2012F0EBF846200FF046F947
:108B300001210B2012F0E4F846200FF03FF9631EEC
:108B400013F0FF04EDD1BFF34F8F0749074BCA68FD
:108B500002F4E0621343CB60BFF34F8F00BFFDE729
:108B6000C4390400C4DC012000ED00E00400FA0573
:108B70002DE9F041254803F0DDFC30B12449254AB8
:108B800000230B601370BDE8F0810446224800F01A
:108B9000BBFA40B11E49214A1E4B0C6001211170E5
:108BA0001C70BDE8F0811A4D0FF0FCF82C68FCB188
:108BB000184F3E78041BA6B942F20F739C42E2D9CB
:108BC000174918484FF0010887F800800FF01EF889
:108BD0001148314600F0FCFA68B9134911480FF00A
:108BE00015F847F22F539C42CDD91048FFF78EFF5E
:108BF0002860BDE8F081094B2E603E7083F800804C
:108C00000B490848BDE8F0410FF000B84CD40120F2
:108C1000D0630020D46300208CDA0120047A002085
:108C2000DC390400C4DC0120383A0400603A040056
:108C3000183A040010B5FFF715FEFFF799FFFEF78D
:108C4000C9FDFFF7EDFE154B1A78052A1AD01B78DF
:108C5000012B0CBF4FF4FA7478240FF0A3F8104ADC
:108C60001368C31AA34208D30E4B106019780B2067
:108C700081F001021A7012F043F8BDE8104005209F
:108C80000FF09CB8074B00220B2001211A7012F044
:108C900037F8BDE8104005200FF090B8047A0020A6
:108CA000007A002020BF012038B501210B2011F0EF
:108CB000A3FF01210B2012F023F8032400210B2035
:108CC00012F01EF850200FF079F801210B2012F05D
:108CD00017F8013C50200FF071F814F0FF04EDD1AB
:108CE0004FF4E1315248534D04F0EEFC32200FF0C6
:108CF00065F851494E480EF05BFF50494C480EF064
:108D000057FF4F494A480EF081FF224640F60221A4
:108D100006200FF031F9034601202B600FF086FB8F
:108D2000484A2B681060002B7AD0002878D046483B
:108D3000012103F095F94448042103F095F92246F6
:108D40000121414803F0C0F921463F4803F0C8FB28
:108D50003E493D4803F04EFB04213B4803F072FBC3
:108D60001E220F21384801F0FBFE2146364801F053
:108D70000BFF4FF47A61344801F00EFF344932485A
:108D800001F018FF3349304801F016FF2346224610
:108D90002146314802F0CAF921462F4802F0DEF997
:108DA0002E492D4802F0A2FA2D492B4802F09AFADA
:108DB0002C4803F045FE2C492A4803F0DDFC2B48E3
:108DC00002F006FE2A480C2100F05CFE112211463A
:108DD000274800F05DFE2648802100F057FE012262
:108DE0002449234800F05AFE214800F061FB224844
:108DF000102100F047FE22461F48112100F048FED6
:108E00001D48F42100F042FE1C491B48012200F0DD
:108E10004DFE194800F04CFBBDE83840FEF7DCBBC6
:108E2000174903480EF0F2FE1648FFF76FFE00BF29
:108E3000C4DC012028CA0120783A04003C3E04002A
:108E4000883A040010BF01204CD40120D83A040015
:108E500005740200DD7402006CD401201D7D020047
:108E6000BD7D0200DC6500207986020024670020B9
:108E7000CC660020017F02003C670020657B020079
:108E8000A03A0400C03A040010B5044B044640F870
:108E9000083B02F0D9FD204610BD00BFA43E0400EF
:108EA0002DE9F041DFF8AC80204C214D214F224EBE
:108EB00084B0404603F07AFD22462049404616F031
:108EC000F1FA1F49684602F0D5FD6946284602F0CE
:108ED0009BFD684602F0B8FD22461A49284616F066
:108EE000E1FA1949194D684602F0C4FD6946384651
:108EF00000F092FD684602F0A7FD22463146384652
:108F000016F0D0FA1249684602F0B4FD69462846C8
:108F100000F082FD684602F097FD22463146284661
:108F200016F0C0FA04B0BDE8F08100BF0060002078
:108F300024670020CC6600207D940200598F020037
:108F4000E43A0400898E02000C3B04003C670020D8
:108F5000343B0400DC6500200B4B10B5044640F8A0
:108F60009C3B00F0C9FD04F15C0000F0C5FD04F17C
:108F70001C0000F0C1FD2046044B40F80C3B02F001
:108F800063FD204610BD00BF883F0400783E04000A
:108F900072DF704773DF704777DF70470022C27758
:108FA0000270704738B5044601F10C000D4602F01E
:108FB0008FFD102806D0802802D1E37F0D2B10DD15
:108FC000002038BDE37F1B2BFADCE2180321E154BB
:108FD000142353702B8A5380E37F0433E3770120FB
:108FE00038BDE21811206969E054152353704868B0
:108FF0008B680D68C968C2F80E10C2F80600C2F886
:109000000250C2F80A30E37F1233E377012038BD03
:10901000F0B589B0064620221348694603F0FEF9F0
:10902000F37FC2181D2A0CDDC3F11D04E4B2E2185F
:109030001D2A4FF00005D8BF082705DD284609B0D6
:10904000F0BD044601250927F218601CF05469465A
:109050005770901C224616F011FEF27F0232144423
:109060002846F47709B0F0BD4CD4012010B5044671
:10907000094803F031FAE37F1C2B01DD002010BD0D
:10908000E2180221E1540A2390705370E37F033306
:10909000E377012010BD00BF4CD40120C27F1C2A01
:1090A00001DD0020704710B403469C18022098543C
:1090B0000120A1706070DA7F0332DA775DF8044B2B
:1090C000704700BF0023C3770370704710B4084A8D
:1090D000084C094902620022C0E90A41C0E90C2299
:1090E0005DF8044B0270C27742628263704700BF32
:1090F000FF0101002000F40020001E00C185704720
:10910000018581854285704790F82300704700BF34
:1091100080F82210704700BFF0B5154605EB8503B7
:10912000274A89B0044603EB830300200E469B00C8
:1091300011680290CDE90460ADF8143094F8213044
:109140008DF80830CB07CDE90600039009D41D49FE
:109150001D4BC87FE77F988101201C6099609F802C
:109160001060194902AA04F12000FFF711FF10B1A5
:10917000002009B0F0BD94F820101448019103F0CC
:10918000ABF9019902460120FFF706FF0028EFD155
:1091900094F820000121FFF7FDFE0028E8D10B48DC
:1091A00003F00AFA628EA68595424FF0010094BF43
:1091B000521B921A628684F8230009B0F0BD00BFEA
:1091C00030D40120C8DA012034D401204CD401204D
:1091D000F0B5002361F30F032D4D044661F31F43E7
:1091E00089B00363FA21284603F07EF9E68D294908
:1091F000278D0868049706EB860303EB83030022A0
:109200009B000592ADF8143094F8213002928DF84D
:109210000830C307CDE9062203920BD41E4BE27F30
:1092200095F89B069A8005F27C6501221C609D6082
:1092300098810A60184902AA04F12000FFF7A8FEED
:1092400010B1002009B0F0BD94F820101048019131
:1092500003F042F9019902460120FFF79DFE002824
:10926000EFD194F820000121FFF794FE0028E8D107
:10927000074803F0A1F9638EA7859E424FF00100D5
:1092800094BF9B1BDB1A638684F8230009B0F0BDF2
:109290004CD4012030D4012034D4012030B50B88C7
:1092A0008D88112B85B0044605D0262B33D0102B8A
:1092B00025D005B030BD436AEB40DB07F9D52E4819
:1092C00001F02EFC0028F4D1636A94F823100122E7
:1092D00002FA05F523EA050363620029E9D194F84F
:1092E0002230002BE5D0238E23486386FA2103F039
:1092F000FBF8E28D218D2046FFF70EFFD9E7CB7BEF
:10930000012BD6D1426A03FA05F5154300234562C5
:1093100080F82330CDE70B7A012BCAD1002380F8E7
:1093200023304FF4FA71144803F0DEF8238E5BB15A
:10933000658E95B1A36B0BB19847658E618D2A46FA
:109340002046FFF7E9FEB4E7A36B03B19847618DB0
:1093500000222046FFF7E0FEABE7074803F040F9A4
:10936000626B002AA5D0009503AB294628460395D9
:1093700011F07EFB9DE700BF4CD4012075DF7047E4
:1093800010B44FF010144FF448010022C0E900411E
:10939000C0E902225DF8044B704700BF014801F0AC
:1093A0007BB800BF3CDB0120F8B500250D4F2E46F1
:1093B00001E0142D14D0A9B2384603F0E5F80135C8
:1093C00004460028F5D000F0EFFE0028F1D020463A
:1093D00000F0F4FE022804BF0136F6B2142DEAD1E3
:1093E0003046F8BD4CD4012070B58E881B480C4621
:1093F00094B0314603F0C8F823881A2B05D01F2BF0
:109400001CD0102B0FD014B070BD054600F0CEFE5E
:109410000028F8D0284600F0CBFE0028F3D12846DB
:1094200000F040FFEFE7694600F024FF0028EAD093
:109430006A4631460A4801F067FFE4E754F8080F2E
:1094400061686B4603C33046BDF80030ADF80230AA
:109450006946FFF793FF14B070BD00BF4CD40120E4
:109460006CD40120AADF7047ABDF7047ACDF7047D8
:10947000ADDF7047AEDF7047B0DF704710B5044B0B
:10948000044640F8043B02F0DFFA204610BD00BF5E
:10949000503E040010B5054B044640F8043B02F072
:1094A000D3FA204611F046F8204610BD503E040085
:1094B00070B57B4B04461B68836196B0043002F0A4
:1094C00017FB94F82E30A06913F0320208BF84F81D
:1094D0002F2013F00C0308BF84F830300DF1010287
:1094E000694602F0A7FA94F82F209DF801001507AD
:1094F0000DD09DF8001002F00F0301F00F059D4202
:109500004FEA12126DD243EA021284F82F2094F827
:10951000303019070BD003F00F0100F00F058D421A
:109520004FEA131369D241EA031384F8303094F8F8
:109530002E1011F0300340F096800FAD0F93C5E967
:109540000133C5E903338DF83C10AB610021ADF860
:1095500009109DF80A10206A1493012363F3420155
:109560008DF808208DF80A1008B1037873BB94F8C1
:10957000263013B104F12603129394F8312000230E
:10958000D2070893079358BFE38AADF81C3004F163
:10959000080004F12F01CDE9050154BF1846E08A07
:1095A000ADF82000294604F13203E569099505AAC2
:1095B0000020FFF757FF054628B994F8253043BB34
:1095C000237D002B64D0284616B070BD109017F094
:1095D00096FA02AB80B2ADF84400ADF846001393A2
:1095E000C5E74FEA111101D191428CD30A462B46AF
:1095F00043EA021284F82F2089E74FEA101001D1C4
:10960000984290D30346294641EA031384F8303048
:109610008DE7ADF80D009DF80E2094F82F600C90AA
:10962000012363F3420242F608118DF80E208DF8F3
:10963000123004AA0223ADF8101003A90D90ADF862
:109640003030ADF834300A9204F124030B910DF15F
:1096500002020AA98DF80C600E93FFF705FF00289F
:10966000AED00546AFE70F4B8DF805200FAD1B7848
:109670008DF80430022000230F938DF80600C5E911
:109680000133C5E90333AB618DF83C1001AB5DE7F5
:109690002146054801F0BAF9284616B070BD00BF52
:1096A00048D40120443E04008CD801202DE9F0412B
:1096B0000B888E88502B8AB00C46054609D0512B5A
:1096C00004D18B79012B19D0022B26D00AB0BDE82A
:1096D000F081CB88428E9A4235D0EA8E9A42F5D1FB
:1096E0006B6D002BF2D095F84420648A920700F14C
:1096F0008A802246294630469847E7E7836C002B4C
:10970000E4D090F84420520701F108076CD43A469F
:10971000294630469847A379D6E7A27B042A46D04B
:10972000062A20D0012AD1D1EB6C002BCED095F89F
:109730004420170704F1080400F1A58022462946B9
:1097400030469847C2E7076D002FC6D090F84430E6
:10975000D90768D404F11208238A424629463046C4
:10976000B847E388B9E7EA6B002AAFD0002202A924
:109770003046CDE90222CDE90422ADF80C208DF867
:109780000830FFF779FE2C6D54B195F84430D807B6
:1097900000F19280B5F84230EA6B30462946A04786
:1097A000E86B0EF041FB0023C5E90F338EE7E86B51
:1097B000002878D0B5F84010278A628A07EB020C9F
:1097C00000234FF0020E8C45CDE90633CDE9083376
:1097D0008DF818E039DD40F20913ADF81C3006A908
:1097E0003046FFF749FE71E703211A46009106ABA8
:1097F00008213846CDE90665089711F039F90028A7
:1098000089D1AB6C83E7032000211A46009006AB98
:109810000846CDE90665089411F02AF900287FF47E
:1098200055AF6B6D65E7218A069604F11208042393
:1098300000933A46404606ABCDE90881079511F002
:1098400017F900288DD12F6D86E79DF81EC0ADF861
:109850001C3004F114014CF001033844ADF822200F
:109860008DF81E300991ADF8207016F007FA238AA2
:10987000618AB5F842200B449BB2934238BF13462D
:10988000A5F84230ABE703211A46009106AB0E2142
:109890002046CDE90665089411F0EAF800287FF427
:1098A00015AFEB6C4AE74FF480600EF0A3FA4FF46B
:1098B0008061C5E90F017FE7E86BB5F842100696B5
:1098C00004230093224606ABCDE90750099111F01D
:1098D000CFF800287FF464AF2C6D5BE72DE9F04FE3
:1098E0000F464FF6FF718F4289B0064615461C465B
:1098F00026D0F18A96F82E308C4228BF0C46DB0623
:1099000015D40DF1100B8C4228BF0C464FF0000807
:10991000718EADF810405A464FF6FF700595ADF8C0
:109920001280FFF7A3FD404609B0BDE8F08F39482B
:10993000394602F011FE08B1F18E31B9F18AE0E743
:10994000344802F015FE0746D3E7002002230DF14C
:10995000100BADF81200ADF810305A460DF10E03A1
:1099600038460593FFF784FD43F2014398424FD0F8
:1099700000284AD19DF80E8008F00108B8F1000FC8
:1099800046D02448394602F0FFFD8246A0B300F0DD
:1099900017FC033883B2002CC5D0CDF804804FF0FB
:1099A0000009984605E0BDF80E30E41AA4B21D4443
:1099B00044B3504600F022FCA045034642465946B7
:1099C00028BF22463846BBB1ADF80E204FF0010249
:1099D000738E8DF812200DF10E02CDE90625CDF81B
:1099E00013908DF81790ADF81030FFF743FD002865
:1099F000D9D0504600F00CFC4FF00008404609B0AA
:109A0000BDE8F08FDDF804808DE700F00108B5E7D0
:109A1000F18A78E74CD4012070B44E68164A86600B
:109A20000260D1E90262154B154D1C784560026158
:109A3000142500220321C0E90F22C0E91222C0E947
:109A40001422C660C58280F8311080F84420027567
:109A5000826102628284C0F82620C0F82A2080F841
:109A60002E20C26142864263028780F82F4080F830
:109A7000304070BC704700BF503E0400443E0400BC
:109A8000BC3E040080F82E10704700BFC1827047B2
:109A900080F82F1080F83020704700BF90F84430D5
:109AA000016562F3000380F84430704790F8443059
:109AB000416562F3410380F84430704751F8322F1A
:109AC000026049684160704710B490F82E4014F06D
:109AD000100407D013465DF8044B0A464FF6FF7199
:109AE000FFF7FCBE20465DF8044B7047A1DF7047CE
:109AF000A3DF7047A4DF704710B5074B044640F85A
:109B0000243B03F001F82146044800F09FFF201D8C
:109B100001F09AFF204610BD683E04008CD8012059
:109B200010B5094B044640F8243B02F0EDFF2146F6
:109B3000064800F08BFF201D01F086FF204610F044
:109B4000F9FC204610BD00BF683E04008CD80120FF
:109B500070B50446D1E901020A4E0B4DCB68236172
:109B6000C4E90202C4E9006504F1240002F0B8FF70
:109B700000236361A36184F83C30C4E90D33E361E1
:109B8000204670BD683E0400BC3E040038B5044663
:109B90000D46043001F0ACFF5DB121462562064858
:109BA00000F07CFF04F124000121BDE8384002F000
:109BB000A1BF024B1D68F0E78CD8012044D40120DE
:109BC0000A46034649681068143303C312891A8091
:109BD000704700BF00238383704700BF808B00382D
:109BE00018BF0120704700BF006A00F06FBA00BFC5
:109BF000808B7047006A704710B592B0044603929C
:109C000000924148322305AA00F036FD68B39DF862
:109C10001A30012B56D0012827D99DF82030012B6E
:109C200058D0022821D09DF82630012B59D0032886
:109C30001BD09DF82C30012B1AD0042815D09DF88C
:109C40003230012B26D005280FD09DF83830012B5B
:109C500028D0062809D09DF83E30012B2AD00728AD
:109C600003D09DF84430012B43D0012012B010BD29
:109C7000BDF82A2042F602139A42DED1032312AA2B
:109C800003EB430302EB4303012033F8323CE3834D
:109C900012B010BDBDF8302042F602139A42D2D164
:109CA0000423ECE7BDF8362042F602139A42D0D1E5
:109CB0000523E4E7BDF83C2042F602139A42CED1D8
:109CC0000623DCE7BDF8182042F602139A42A2D11F
:109CD0000023D4E7BDF81E1042F602129142A0D133
:109CE000CDE7BDF8242042F602139A429FD1022309
:109CF000C5E7BDF8422042F602139A4208BF072387
:109D0000BDD0012012B010BD3CDB0120037E1B073B
:109D100001D4002070472DE9F043044685B0006A65
:109D20000E46154600F0D2F90146324802F02CFCEE
:109D300060B300F045FAA0F103081FFA88F8454522
:109D400028D8012204F12408A38B8DF80420314681
:109D5000002740462A46CDF80570ADF80A50ADF808
:109D6000063003968DF8097002F0E0FE206A00F0DC
:109D7000ADF901A9FFF7BCFE40B94046642102F0ED
:109D8000DBFE0028ACBF2846002000E0002005B024
:109D9000BDE8F083053880B2A84228BF28460422D7
:109DA00004F12409A38BADF80A0031460027484688
:109DB0008DF804202A46CDF805700396ADF80630DC
:109DC0008DF8097002F0B2FE206A00F07FF901A957
:109DD000FFF78EFE0028D9D16421A8F10208484679
:109DE00095FBF8F505FB011102F0A6FE20EAE070F4
:109DF00080B2CCE74CD4012090F83C30416362F350
:109E0000000380F83C307047037E13F0100301D14B
:109E10001846704730B585B004460123006AADF896
:109E2000023000F053F9E38BADF80630054600230D
:109E300002224FF48174ADF808300D48ADF80440AB
:109E40000DEB02032946ADF80A20039302F09CFBB8
:109E500010B100F0E9F910B9002005B030BD284676
:109E600001A9FFF745FEB0FA80F0400905B030BD0A
:109E70004CD401202DE9F0410B88CE88382B86B0D8
:109E80000C46054606D0392B66D0362B43D006B09B
:109E9000BDE8F08100F12407002E36D10A8A384649
:109EA000314602F081FE94F80C80B8F1010F2CD0FD
:109EB000B8F1040FEBD1286A00F008F901465C48BC
:109EC00002F062FB00F07CF92A8E053883B29342DF
:109ED00028BF1346002B00F09A80218AE289286A65
:109EE000AC8B8DF80D600A44E96A05918DF80C8001
:109EF000ADF81230ADF81020ADF80E4000F0E6F8E5
:109F000003A9FFF7F5FD0028C1D0384602F064FE32
:109F100006B0BDE8F081006A00F0D8F80146444878
:109F200002F032FB00F04CF907466EBB05F1240647
:109F3000E289304604F1100102F036FE2B8E2BB17F
:109F4000F81EE38980B20138834255DA304602F0C8
:109F500043FE06B0BDE8F0810B7B012B1AD0022B2B
:109F600095D1836B002B92D090F83C208F8892077C
:109F70001FD401F11006E2893146284698476189CD
:109F80003846FFF7B7FD82E705F12407384602F0AF
:109F900023FEBDE7436B002B3FF479AF90F83C20E4
:109FA000D10717D404F11006E289314628469847B4
:109FB0006DE7C989039004F1100603201A4600904A
:109FC00003AB3046CDE9046110F052FD0028D6D134
:109FD000AB6BD0E7E189039004F1100603201A4629
:109FE000009003AB3046CDE9046110F041FD00283C
:109FF0007FF44DAF6B6BD7E7286A00F067F86A8E85
:10A00000A98B92B2FFF772FD00289FD13FE7AA8B80
:10A01000286AADF80E2040F20511ADF80C10CDE91C
:10A02000043300F053F803A9FFF762FD6DE700BFAA
:10A030004CD401204FF6FF738380704710B504465F
:10A040000C3001F055FD044B04481C60214600F023
:10A0500039FD012010BD00BF44D401208CD801205F
:10A0600038B5044608480D4600F022FA40B10648CB
:10A0700001232246294600F01DFA00B1A58038BD13
:10A08000014800F009FAF2E73CDB012070B44C68AB
:10A090000461D1E90254064A064E0749C2604FF6F0
:10A0A000FF72C0E905540660416070BC02817047D0
:10A0B000BC3E0400783E0400FFFF010080884FF69C
:10A0C000FF73C01A18BF0120704700BF8088704717
:10A0D00082B0C0F8061002B0704700BF76DF70474C
:10A0E0008FDF704790DF7047B1DF7047B5DF704793
:10A0F00010B5074B03600446806A0EF055FDE06A18
:10A100000EF052FD206B08B10EF04EFD204610BD42
:10A110008C3E040010B5094B03600446806A0EF0C3
:10A1200043FDE06A0EF040FD206B08B10EF03CFDEF
:10A13000204610F0FFF9204610BD00BF8C3E040001
:10A1400070B504460D4692E80300A5800E0CA06190
:10A15000A183144DA67717201B2156892560E08026
:10A160009589D089E181D179658101222275227496
:10A17000A08161741846194626819DF810500DF093
:10A180003DFF2946A06228460DF038FF4FF4885164
:10A1900000234FF6FF72E182E062628223636375FF
:10A1A000204670BD8C3E0400007D7047407D7047A6
:10A1B000C07D113818BF0120704700BF407C704738
:10A1C000C0887047008970474B7D10B44BB11F3178
:10A1D0000C688A888B79046082805DF8044B8371F7
:10A1E00070471831F4E700BF08B513218088FFF7E6
:10A1F00075FFB0FA80F0400908BD00BF08B56621C0
:10A20000806A0EF055FB003818BF012008BD00BF62
:10A2100008B500231A461946806A0DF021FF003860
:10A2200018BF012008BD00BF08B56621C06A0EF046
:10A230003FFB003818BF012008BD00BF818800F136
:10A240001F02407C02F00EBD38B50A4605460C469A
:10A250008188407C02F0F2FC2146012051F8483F01
:10A26000C5F81F308B888A7985F82520A5F823301A
:10A27000687538BD38B50A4604460D4600F1180128
:10A28000407C02F025FD607550B1294651F8483FE9
:10A29000C4F81F308B888A7984F82520A4F82330ED
:10A2A00038BD00BF10B5447D24B100F11F01407CD2
:10A2B00002F0ECFC204610BDC37D112B01D0012023
:10A2C00070478188014801F015B800BF6CD40120A7
:10A2D00070B50B88113B82B00C460546462B2BD837
:10A2E000DFE803F0383B2A2A2A2A2A2A2A422A2A85
:10A2F0002A2A2A2A50585E642A2A2A2A2A2A2A2AFC
:10A300002A2A2A2A2A2A2A2A2A2A2A2A2A672A9406
:10A310002A2A2A2A2A2A2A2A2A2A2A2A2A2A2A2A9D
:10A320002A2A2A2A2A246A2A752C84000023A8882B
:10A330001A461946FFF7D8FE02B070BD8B79002B84
:10A34000FAD1006BAB750028F6D01A4619460DF00D
:10A3500087FEF1E700230375EEE74B8903818B89C4
:10A360004381CB898381E7E70B7AC375112BE3D057
:10A37000818800F11F02407C02F062FD0346002844
:10A38000DAD1D4E7002301A98088ADF80430FFF7C3
:10A39000A7FED1E70B7A002BCED14B7A0374CBE723
:10A3A000002211468088FFF79DFEC5E70B89C38117
:10A3B000C2E74B89C380BFE7006B0123AB75002860
:10A3C000BAD000231A4619460DF04AFEB4E7417C84
:10A3D000164802F0D1F8E3880146994228BF194691
:10A3E00089B2A888E980FFF781FEA5E78B79002B69
:10A3F000A2D0002600231A461946A86A0DF030FEA6
:10A400000136A279F3B29A42F4D895E78B7A002B01
:10A4100092D0002600231A461946E86A0DF020FE65
:10A420000136A27AF3B29A42F4D885E74CD40120DF
:10A4300070B58AB086880B4606A84FF4285114469A
:10A4400005934FF6FF7501F007FB0120CDE90105EB
:10A45000059B0094314606AA044800F073F90446AF
:10A4600006A801F0F1FA20460AB070BD8CD8012090
:10A470009BDF70479DDF70479EDF704710B5044635
:10A48000043002F02DFB034B23600023237520468C
:10A4900010BD00BF0100FFFF017D01B1704710B585
:10A4A0000446043002F026FB0123237510BD00BFD3
:10A4B000007D70472DE9F04100F1040884B00E469C
:10A4C00014461F460A2201A90546404602F02EFB0B
:10A4D0003946304604F11002FFF7CAFF20B10026CA
:10A4E000304604B0BDE8F08140464FF47A7102F086
:10A4F00023FB0028F3DDBDF80430002BEFD0DDF89E
:10A50000061004F10C0001F04BFB06460028E6D0D3
:10A51000DDF80A00286001462046FFF7D9FD2B88A8
:10A5200001332B80DCE700BF2DE9F04F2DED028BCE
:10A5300089B00446522008EE101A0494174602927D
:10A540001D4605930DF056FC0646002D00F0918047
:10A550006B1E3A46DBB2043202EB83092346043316
:10A5600008EE903A0023039352220021304615F062
:10A57000ADFB18EE900A3146522202F0D7FA049948
:10A5800018EE100AFFF776FF00283ED118EE900A69
:10A590004FF47A7102F0D0FA002836DD3388082BA8
:10A5A00064D9082333804FF0000AD04608EB8803B3
:10A5B00000935F00DDF808B04FEA880301935C4622
:10A5C0005BF8040BF519FFF709FB38B95BF8040CCD
:10A5D000D5F80210043001F0E3FAF8B9D945EED10C
:10A5E00033880AF1010A5FFA8AFA9A45D046DDDB20
:10A5F000013B03EB830306EB4303049A5B890133BE
:10A600001380059B039A9342AED830460DF00CFCA4
:10A61000039809B0BDEC028BBDE8F08F009B206869
:10A6200006EB43010231FFF7CBFAAB79DA0601D42E
:10A630009B060BD5019B434406EB4308049B5A88B9
:10A64000B8F80A3001339BB2934204D9039B01331B
:10A65000DBB20393C4E7ADF81C30ADF81E202068D0
:10A66000079A18EE101AFFF7C7FAEFE7002B9AD1F6
:10A67000BEE7059B0393C8E770B51546041D0E465B
:10A68000204629461A4602F051FA04A93046FFF73F
:10A69000F3FE08B1002070BD20464FF47A7102F03D
:10A6A0004BFA0028F6DD28880028F3D070BD00BFE3
:10A6B0000B88322B10B504D0332B17D0302B08D099
:10A6C00010BDCB88DBB1041D2046BDE8104002F070
:10A6D00083BACB88041D002BF6D14B89002BF3D015
:10A6E0000A3120460A2202F05FFAEDE7CB88002B00
:10A6F000E9D14A89002AE6D002EB420204E04A8905
:10A70000002AE0D002EB82025200041D023292B213
:10A710000A31204602F048FAD6E700BFA0DF7047B2
:10A7200010B5044600F5F87002F0DAF92046F82278
:10A73000002115F0CBFAF822A018002115F0C6FA76
:10A74000204610BD2DE9F04782B00546BDF82C60CB
:10A75000BDF830402048ADF80460BDF828A0ADF841
:10A760000640904699460F4601F00EFF05F5F87534
:10A77000064603E0FFF726FD0DF020FB284602F019
:10A7800011FA04463046002CF4D10121284602F08B
:10A79000B1F952464946284602F0C8F908F10401C9
:10A7A000384601AAFFF7BAFF30B1284602F0ACF9EB
:10A7B000204602B0BDE8F0874FF4FA71284602F057
:10A7C000BBF920EAE074284602F09EF9A4B22046C4
:10A7D00002B0BDE8F08700BF4CD401202DE9F04F56
:10A7E0008F880D8885B0884604463946864801F032
:10A7F000CBFEA5F11003012B814640F2908094F826
:10A8000054203AB3002633461633502D54F823A073
:10A8100069D0512D1AD198F80630B8F808B0022B3B
:10A8200053D0BBF1000F11D051466846FFF746F9EF
:10A83000BDF800305B4559D0514602A8FFF73EF9FC
:10A84000BDF80C305B4551D094F854200136F3B27A
:10A850009342D9D394F84C31002B00F0D18004F509
:10A86000A679002604E094F84C310136B34220DD8D
:10A8700059F8040FFFF7B8F9B842F4D1382D03D0D6
:10A88000392D01D0362DEED1B8F80AA0BAF1000F5B
:10A89000E9D0D9F800B05846FFF7AAF95045E2D1FF
:10A8A00058464146FFF7E6FA94F84C310136B34278
:10A8B000DEDC112D55D0352D04D1B8F80A30002B2F
:10A8C00040F08F8005B0BDE8F08F98F80E30062B71
:10A8D000A7D1DAF800305046DB6841469847484631
:10A8E000FFF766FCB0E7B8F806B09AE7DAF8003090
:10A8F0005046DB68414698474846FFF759FC002818
:10A90000A2D0502DA0D1514602A8FFF7D7F8BDF82C
:10A910000C305B4598D14846FFF790FC94E72378CC
:10A92000002B3FF46CAF0026112D33460CD004EB06
:10A9300083033946586803685B6898470136227874
:10A94000F3B29A42F3D85AE704EB830339465868C6
:10A9500003681B68984701362278F3B29A42F3D80D
:10A960004DE7D3B10026334605E094F84C2101367B
:10A97000F3B29A4211D904EB8305D5F85001FFF7E1
:10A9800033F9B842F1D1D5F85001FFF723F9013678
:10A9900094F84C21F3B29A42EDD894F8F820002AAA
:10A9A00090D000252B4604EB8303D3F8FC0083886A
:10A9B000BB420AD00135EBB2934283D204EB83034E
:10A9C000D3F8FC008388BB42F4D103681B68984726
:10A9D000013594F8F820EBB29342E4D305B0BDE81A
:10A9E000F08F04F5F874B8F80C20204608F1100137
:10A9F00002F0DAF8204605B0BDE8F04F02F0ECB8FE
:10AA0000112D7FF458AFC8E74CD4012090F85420A2
:10AA1000272A0CD810B4034602F11604013280F83C
:10AA2000542043F8241001205DF8044B70470020A7
:10AA3000704700BF0378132B06D800EB8302013365
:10AA400003700120516070470020704770B590F886
:10AA50004C510DB3064600F5A673002402E0013404
:10AA6000AC4219D053F8042F8A42F8D10EF022FCE0
:10AA700096F84C31013BDBB206EB830286F84C3191
:10AA80005434D2F8503146F824300023BDE87040E9
:10AA9000C2F850310EF0BEBC70BD00BF90F84C2122
:10AAA000272A0CD810B4034602F15404013280F86E
:10AAB0004C2143F8241001205DF8044B704700201E
:10AAC000704700BF90F8F830132B08D800EB8302D2
:10AAD000013380F8F8300120C2F8FC1070470020E4
:10AAE000704700BF78DF70477ADF7047054A03463A
:10AAF00092E80300002283E80300C3E9022218461B
:10AB0000704700BF943E040008B5FFF7EDFF08B1A1
:10AB1000002008BDFFF7E6FFB0FA80F0400908BD4D
:10AB2000F8B500250D4F2E4601E0142D14D0A9B222
:10AB3000384601F029FD013504460028F5D0FFF71D
:10AB400033FB0028F1D02046FFF738FB012804BF73
:10AB50000136F6B2142DEAD13046F8BD4CD40120AE
:10AB600008B5084B89009200A3FB01C1A3FB023288
:10AB70008908920801804280FFF7B6FFB0FA80F0A2
:10AB8000400908BDCDCCCCCC08B58180FFF7ACFF27
:10AB9000B0FA80F0400908BD08B5054BA3FB0131B0
:10ABA000C908C180FFF7A0FFB0FA80F0400908BDD6
:10ABB000CDCCCCCC81607047C1607047704700BF7E
:10ABC0008ADF704730B40D4CC4621F250022502428
:10ABD0008584A025C0E91122C0E90F22A0F84650C3
:10ABE000A0F84840006230BC8262028680F83820BB
:10ABF0004263C264A0F85020704700BF000180008B
:10AC00002DE9F04F10468DB016460C4600F060FF5F
:10AC1000C5B2102D4FD0B66807220623A16994F85B
:10AC20001C9001918DF80D208DF80C30ED080DF180
:10AC30000C080DF10E0A0027B9F1010F0A97CDE9B2
:10AC40000477CDE90677CDE90877CDF82B700ED9DA
:10AC500098F8000001994B464A7882420FD00A7852
:10AC6000D4432344013213F0FF031144F4D108F11B
:10AC70000108C245E0D100200DB0BDE8F08F11F809
:10AC8000024B013CE4B2224604A814F0F7FF0DF198
:10AC9000100B1CB9EBE714F0FF04E8D058462A4625
:10ACA000314614F0DDFF641BAB440028F3D10120D2
:10ACB0000DB0BDE8F08F043603220223AEE700BFDB
:10ACC0002DE9F0430B888E88103B87B00D46044673
:10ACD0000D2B2CD8DFE803F077072B2B2B2B2B2BFE
:10ACE0002B2B2B842B2E836AF340DB071FD5564872
:10ACF000FEF75AFBD8B9A36A94F82C20012505FA6F
:10AD000006F623EA0606A6628AB994F82D3073B1D6
:10AD10001F232462A38404F1200104F14400FFF7FF
:10AD20004FFF20B9494801F047FC84F82C5007B088
:10AD3000BDE8F08390F92E2091F91B309A423ADC5D
:10AD400090F8383001F108080BB3DFF804910026C1
:10AD500002E0D6B2B34218D9636BCDF8089003EB8A
:10AD6000061302AA59680391D3E9027341462046AB
:10AD700005930497FFF744FF074602A800F064FE1E
:10AD800094F83830721C002FE3D09E4213D094F810
:10AD90002F30002B49D095F82430012B0BD9296A8C
:10ADA0004A78FF2A30D00A78D0430344013213F0A6
:10ADB000FF031144F4D104F120010020FFF700FF4C
:10ADC00007B0BDE8F083CB7B022BB0D1836A0122B0
:10ADD00002FA06F633430022836280F82C20A6E7AD
:10ADE0000B7A012BA3D1002580F82C50174801F0D5
:10ADF000F7FB226C002A9AD0009502AB2946284620
:10AE000002950FF035FE92E711F8025B6A1ED2B28E
:10AE1000022A28BF022202A814F030FF012DCAD056
:10AE2000228EBDF808309A42C5D1E26B002A3FF469
:10AE30007EAF01230093404602AB2421CDF8088069
:10AE40000FF016FE73E700BF5CD401204CD4012044
:10AE5000BC3E040046DF70477EDF70477FDF7047EF
:10AE600080DF704781DF704785DF704786DF70477E
:10AE700038B51C460D4603461146284622469847DB
:10AE800034B1014600222846BDE83840FFF7E8BF4C
:10AE900038BD00BF10B50C4682B003466946204657
:10AEA00098476A4620460121FFF7DAFF02B010BD3D
:10AEB00010B50446083002F0EDF9074B2360032279
:10AEC00000232271C4F81034C4F81434C4F81834C0
:10AED000C4F81C34204610BD3507100330B50446B5
:10AEE000ADF55F7D00F108058F4802F067F9082194
:10AEF000284602F0D3F9684602F0DAF968460821DC
:10AF000002F0DAF96946284602F078F904F54F7143
:10AF10004122684602F0DEF9684602F0D7F994F85B
:10AF20005C0394F85B2394F83D1394F83E3384F863
:10AF30003D0384F83E2394F85A0394F8592394F877
:10AF40003F5384F85C1384F85B3394F8401394F80F
:10AF5000413384F83F0384F8402394F8580394F86D
:10AF6000572384F85A5384F8591394F8425394F8A9
:10AF7000431384F8410384F8583394F8560394F843
:10AF8000443384F8422394F8552384F8575384F8C3
:10AF9000430384F8442384F8553384F8561394F813
:10AFA000451394F8540394F8532394F8463384F8E3
:10AFB000450384F8462394F8520394F8512394F8F7
:10AFC000475384F8541384F8533394F8481394F88F
:10AFD000493384F8470384F8482394F8500394F8DD
:10AFE0004F2384F8525384F8511394F84A5394F839
:10AFF0004B1384F8490384F8503394F84E0394F8C3
:10B000004C3384F84A2394F84D2384F84F5384F842
:10B010004B0384F84C2384F84D3384F84E1394F892
:10B020005D1394F87C0394F87B2394F85E3384F8E2
:10B030005D0384F85E2394F87A0394F8792394F8F6
:10B040005F5384F87C1384F87B3394F8601394F88E
:10B05000613384F85F0384F8602394F8780394F8EC
:10B06000772384F87A5384F8791394F8625394F828
:10B07000631384F8610384F8783394F8760394F8C2
:10B08000643384F8622394F8752384F8775384F842
:10B09000630384F8642384F8753384F8761394F892
:10B0A000651394F8740394F8732394F8663384F862
:10B0B000650384F8662394F8720394F8712394F876
:10B0C000675384F8741384F8733394F8681394F80E
:10B0D000693384F8670384F8682394F8700394F85C
:10B0E0006F2384F8725384F8711394F86A5394F8B8
:10B0F0006B1384F8690384F8703394F86E0394F842
:10B100006C3384F86A2394F86D2384F86B03012070
:10B1100084F86F5384F86E1384F86C2384F86D33CD
:10B120000DF55F7D30BD00BFD8DB012031B173B1BB
:10B130000378042262F3061303707047002B037830
:10B140000CBF0322022262F30613037070470378D8
:10B1500002F0070262F3061303707047037861F38D
:10B1600041030370704700BF0B7803F0FE03042B0C
:10B1700001D00020704770B515468CB00C462022D7
:10B18000002104A814F0A2FD28686968AA68EB6889
:10B190006D460FC59DF800109DF80F209DF80160C9
:10B1A0009DF80E509DF802008DF80F1023469DF873
:10B1B0000D108DF800209DF803208DF80E608DF89D
:10B1C00001509DF80C609DF804508DF80D008DF82D
:10B1D00002109DF80B009DF805108DF80C209DF8CD
:10B1E0000A208DF803608DF80B508DF804008DF85F
:10B1F00005208DF80A109DF8061033F8042FADF8DD
:10B2000010209B789DF809209DF81D009DF8106086
:10B210009DF81F508DF809108DF806209DF811102B
:10B220009DF81E208DF81D309DF807308DF8120016
:10B230008DF81F609DF808009DF813608DF8105080
:10B240008DF81E109DF81C509DF814108DF81120DB
:10B250008DF808309DF81B209DF81A308DF80700F6
:10B260008DF81C608DF813509DF815608DF81B103B
:10B270008DF8142068468DF815309DF819109DF84A
:10B2800017209DF818309DF816508DF818208DF86D
:10B2900016108DF817308DF81A608DF81950FFF7D9
:10B2A000D9FD62789DF82F309DF82E009DF82D1065
:10B2B0008DF821009A428DF8221004F1010404D087
:10B2C000012080F001000CB070BD6278C3B29A42D8
:10B2D00004F10104F4D16278CBB29A42F0D100209B
:10B2E000EFE700BFC0F81814704700BFC0F81C1487
:10B2F000704700BF08B5034608461946FFF7ACFD86
:10B30000B0FA80F0400908BD08B5137CDB0758BFD0
:10B310001C32084602F11201FFF7A6FDB0FA80F0D8
:10B32000400908BDF0B58F880E46ADF56B7D04462B
:10B330003946464801F028F93388133B0546072B68
:10B340002FD8DFE813F03E005F006D002E002803C9
:10B35000870008003100337AB3B9737B9B070ED4A2
:10B36000294602A8FEF730FF0299BDF80C209DF88F
:10B370000E3084F80C34C4F80614A4F80A242846C5
:10B3800004F2BE31FEF760FFD4F818244AB1307AD7
:10B390000D9002230021009308460CAB0C970FF090
:10B3A00067FB0DF56B7DF0BDD4F81C24002AF8D0A6
:10B3B00001230021009308460CAB0C970FF058FBBB
:10B3C000EFE704F2BE3304F2DA320C9304F2F63300
:10B3D00000251092119304F23D3204F27E330F9255
:10B3E0001393CDE90D551295FEF7E8FE01280CBF29
:10B3F00022462A460CAB29463846FFF72FFD0DF5AD
:10B400006B7DF0BD0CA9FEF735FF0346002800F068
:10B41000D2820CA9384600231AAAFFF727FDC0E7FD
:10B42000D4F810140029BCD0B37B094A03F00103FF
:10B430000F930423CDE90C1706F1080000930621B1
:10B440000CAB0E900FF014FBABE700BF4CD4012007
:10B4500071AE020094F87E3394F89D2394F87FC374
:10B4600094F89C6394F8805394F89B0384F89D337C
:10B47000042194F89A3384F87D1384F87E2394F899
:10B48000811394F8822384F89CC384F87F6394F832
:10B4900099C394F8836384F89B5384F8800394F8E9
:10B4A000985394F8840384F89A1384F8813394F8B9
:10B4B000971394F8853384F8992394F8962384F8A5
:10B4C00082C384F8986384F8835384F8970384F8DC
:10B4D000841384F8852384F8963394F8862394F8AB
:10B4E000953394F887C394F8946394F8885394F848
:10B4F000930394F8891384F8952384F8863394F899
:10B50000922394F88A3384F894C384F8876394F878
:10B5100091C394F88B6384F8935384F8880394F868
:10B52000905394F88C0384F8921384F8892394F848
:10B530008F1394F88D2384F8913394F88E3384F824
:10B540008AC384F8906384F88B5384F88F0384F85B
:10B550008C1384F88D3384F88E2394F89E2394F80A
:10B56000BD3394F89FC394F8BC6394F8A05394F847
:10B57000BB0394F8A11384F8BD2384F89E3394F898
:10B58000BA2394F8A23384F8BCC384F89F6394F878
:10B59000B9C394F8A36384F8BB5384F8A00394F868
:10B5A000B85394F8A40384F8BA1384F8A12394F848
:10B5B000B71394F8A52384F8B93394F8B63384F814
:10B5C000A2C384F8B86384F8A35384F8A41384F85E
:10B5D000B62384F8A53384F8B70394F8A60394F847
:10B5E000B51394F8A72394F8B43394F8A86394F8A7
:10B5F000B35384F8B50384F8A61394F8A90394F818
:10B60000B21384F8B42384F8A73394F8AA2394F8E7
:10B61000B13384F8B36384F8A85394F8AB6394F817
:10B62000B05384F8B20384F8A91394F8AC0394F8E7
:10B63000AF1384F8B12384F8AA3394F8AD2394F8B7
:10B64000AE3384F8AD3384F8AE2384F8B06384F865
:10B65000AB5384F8AF0384F8AC130CA801F028FEB8
:10B660000CA8082101F028FE04F27D310CA841222B
:10B6700001F042FE0CA904AA202304F1080001F005
:10B68000EBFD0CA801F022FE9DF810109DF82F0094
:10B690009DF811309DF82E209DF812609DF82D50D8
:10B6A0008DF810008DF82F109DF813009DF82C10C8
:10B6B0008DF811208DF82E309DF814209DF82B3038
:10B6C0008DF812508DF82D609DF815509DF82A6068
:10B6D0008DF813108DF82C009DF816109DF8290098
:10B6E0008DF814308DF82B209DF817309DF8282008
:10B6F0008DF815608DF82A508DF816008DF81720FA
:10B700008DF828308DF829109DF818109DF8270025
:10B710009DF819309DF826209DF81A609DF8255057
:10B720008DF818008DF827109DF81B009DF8241047
:10B730008DF819208DF826309DF81C209DF82330B7
:10B740008DF81A508DF825609DF81D509DF82260E7
:10B750008DF81B108DF824009DF81E109DF8210017
:10B760008DF81C308DF823209DF81F309DF8202087
:10B770008DF81D608DF822508DF821108DF81F2056
:10B780008DF820308DF81E0094F87E0394F89D13F8
:10B7900094F87F2394F89C3394F8806394F89B5337
:10B7A00084F89D0384F87E1394F8810394F89A1327
:10B7B00084F89C2384F87F3394F8822394F8993397
:10B7C00084F89B6384F8805394F8836394F89853C7
:10B7D00084F89A0384F8811394F8840394F89713F7
:10B7E00084F8992384F8823394F8852394F8963367
:10B7F00084F8986384F8835384F8841384F8962338
:10B8000084F8853384F8970394F8860394F89513A5
:10B8100094F8872394F8943394F8886394F89353B6
:10B8200084F8950384F8861394F8890394F89213A6
:10B8300084F8942384F8873394F88A2394F8913316
:10B8400084F8936384F8885394F88B6394F8905346
:10B8500084F8920384F8891394F88C0394F88F1376
:10B8600084F8912384F88A3394F88D2394F88E33E6
:10B8700084F8906384F88B5384F88C1384F88E23B7
:10B8800084F88D3384F88F0394F89E0394F8BD13E5
:10B8900094F89F2394F8BC3394F8A06394F8BB53B6
:10B8A00084F8BD0384F89E1394F8A10394F8BA13A6
:10B8B00084F8BC2384F89F3394F8A22394F8B93316
:10B8C00084F8BB6384F8A05394F8A36394F8B85346
:10B8D00084F8BA0384F8A11394F8A40394F8B71376
:10B8E00084F8B92384F8A23394F8A52394F8B633E6
:10B8F00084F8B86384F8B70384F8A41384F8B623F3
:10B9000084F8A53384F8A35394F8A65394F8A72396
:10B9100094F8B43394F8B50394F8A81394F8B36387
:10B9200084F8B55384F8B42394F8A95394F8AA235F
:10B9300084F8A73394F8B13394F8B0C384F8A6031D
:10B9400084F8B31394F8B20394F8AB1384F8A863A3
:10B9500084F8B25394F8AC6394F8AF5384F8B123ED
:10B9600084F8AA3394F8AD2394F8AE3384F8A9038D
:10B9700084F8B013384604A984F8ABC384F8AF63E5
:10B9800084F8AC5384F8AE2384F8AD33FFF76AFA39
:10B990000DF56B7DF0BDD4F81424002A3FF401AD01
:10B9A0000223002100930C920CAB064A0D97084627
:10B9B0000FF05EF8F5E438461A461946FFF756FAD6
:10B9C000EFE400BF95AE0200A8DF7047704700BFEC
:10B9D00030B5044683B0083000F08AF804F10C0159
:10B9E0000DF106020120FFF7EFFF054628B9044BD1
:10B9F00004481C602146FFF71DF8284603B030BDFF
:10BA000048D401208CD8012030B44C68C460D1E9FE
:10BA10000241054A054D0260054A8560C0E90441BE
:10BA2000426030BC704700BFA43E0400BC3E04002E
:10BA30000000111183790B70C3791370704700BF38
:10BA400062DF704763DF7047704700BF10B5044680
:10BA50000EF070FD204610BD10B4054C8180002210
:10BA600001210460C0E902225DF8044B8171704736
:10BA7000BC3E040038B50E4B0360044608460D4634
:10BA800015F03DF8042806D00023A371E560A380DB
:10BA9000A360204638BD28461022002115F00EF97B
:10BAA00001220023A271A080C4E90233204638BDE0
:10BAB000BC3E0400002210B4044C046081605DF8B8
:10BAC000044B82718280C260704700BFBC3E04009C
:10BAD0008379012B0AD0826832B9C26822B9012B5E
:10BAE0008CBF802000207047802070471020704756
:10BAF0002DE9F047857982B0002D47D1C768064609
:10BB0000002F47D010200CF075F98246384614F00B
:10BB1000F6FF441E30B3DFF88490A84604E00134F9
:10BB2000023C1FD4102D1DD017F804C0BCF12D0FFE
:10BB300007EB0402F3D099F80030ADF805808DF8DA
:10BB4000043012F8013C8DF804301022002101A8C5
:10BB50008DF805C015F0B2F86B1C023C0AF8050020
:10BB6000DDB2DFD5C6F808A0BAF1000F0ED0B11DC6
:10BB70005046FFF765FFB168321D1020FFF762FFE6
:10BB8000B0FA80F0400902B0BDE8F087012002B0B1
:10BB9000BDE8F087D0F808A0E6E700BFB03E04009B
:10BBA00082B083790191C1F307418B4202D000201A
:10BBB00002B070478088BDF80430C01AB0FA80F037
:10BBC000400902B0704700BF4DDF70474EDF70473D
:10BBD0004FDF704750DF70474BDF704710DF704713
:10BBE0007CDF70477DDF704760DF704769DF70473B
:10BBF00061DF704766DF704767DF7047704700BFDF
:10BC00000C200FF09BB800BF30B5224C224D83B002
:10BC1000D4F828074FF0FF310CF04AFE0028F7D087
:10BC2000C5B101A8FFF7D8FF0528F1D00028F8D149
:10BC3000019B032B1BD8012BF3D918460BF008FFEF
:10BC4000EFE70A2B04D0092B21D00B2B02D10120C6
:10BC500005F0D6FD01A8FFF7BFFF0528D8D00028C2
:10BC6000F8D1019BA3F10902022AF3D8E9E7A3F175
:10BC70000902022AD5D80A2B04D0092B05D00B2B98
:10BC8000CFD1012005F0BCFDCBE70220FAE702206E
:10BC9000DEE700BF4CD40120517A03002DE9F04FBC
:10BCA0002DED028B4FF4FA7089B00CF0A3F8B24E70
:10BCB00000F1080308EE103A054606F5F06706F5B0
:10BCC000C86AD6F824074FF0FF310CF0F1FD0028C8
:10BCD000F7D04FF4FA730DF116012846ADF816307F
:10BCE000FFF786FF10B10528F3D1EAE7B5F8049015
:10BCF000B9F1130F00F2398106EB8903D3F8344709
:10BD00003CB129462046FEF7E3FA9C482946FFF756
:10BD100009FB2B88013B1B2B5AD8DFE813F01601D7
:10BD2000590059005900590059005900590059004B
:10BD3000590059005900590059005900B4001C001D
:10BD4000590059005900590059005900590059002B
:10BD500059005900A200DFF838824FF0000B58F864
:10BD6000040F30B1FEF720FA18B10BF1010B5FFAA6
:10BD70008BFBB845F3D1BBF1000F06D196F83037F5
:10BD80001BB159460C200EF0BBFF2046FEF716FAF9
:10BD9000012800F0EC80F26962B10223002195F8DD
:10BDA00008C00093084606ABCDF81890CDF81CC02B
:10BDB0000EF05EFE09F5E67806EB8803586810B1D0
:10BDC00003685B68984706EB88080023C8F80430CE
:10BDD00029465046FDF762FA69482946FEF770FF8A
:10BDE000B6F832374B452B8800F0B480102B1ED0AC
:10BDF0002CB32046FEF7E2F9012803D15E4829461C
:10BE0000FEF7DCFE2046FEF7D9F902281BD05D487C
:10BE1000FEF74EFB00BB5C482946FEF7DFFCD6F878
:10BE20008837002B3FF455AF2846984751E7EB7B06
:10BE3000012BDDD1AB88A6F83237002CD9D14E4882
:10BE40002946FEF7BBFE51482946FDF7CDFA4D487D
:10BE5000FEF72EFB0028DED04A482946FEF728FCD4
:10BE6000D9E7D6F88427002AB2D00223002195F919
:10BE700008C00093084606ABCDF81890CDF81CC05A
:10BE80000EF0F6FDA4E74FF00008D6F82C07CDF829
:10BE900000804346424603213D4C0EF083F854F89F
:10BEA000040F30B1FEF780F918B108F101085FFA0C
:10BEB00088F8BC42F3D196F830376BB1B8F1000185
:10BEC00018BF01210C200EF01BFF96F830371BB174
:10BED00001210C200EF014FF09F5E67806EB88042A
:10BEE000606820B103685B68984700236360EB7B60
:10BEF000012B0BBF96F8123796F8183796F81347B0
:10BF000096F81947039334200EF012FB06EB8808CD
:10BF1000039B009418EE102A04464946FEF710F9D8
:10BF20002046C8F80440FEF749F9012832D0B2692A
:10BF3000002A3FF44DAF012300210093084606ABD1
:10BF4000CDF818900EF094FD42E700214846FFF727
:10BF500051FE3DE7102B3FF46AAF112B7FF448AF41
:10BF60004FF6FF73A6F8323742E70446D1E6F2688F
:10BF7000002A7FF412AF1DE74CD401206CD40120BD
:10BF8000E8DA01203CDB01208CD801205CD40120C0
:10BF90007CDB0120B268002A3FF41AAF0021009038
:10BFA00006AB0846CDF818900EF062FD10E700BF12
:10BFB00038B50446FEF79AFD04F11000FDF7E0F9EC
:10BFC00004F12000FEF774FF04F58860FEF7A8FB7B
:10BFD00004F5C860FDF77AF804F27C60FCF7DEFF38
:10BFE00004F29C60FEF7EEFD04F5DE60FEF746FA13
:10BFF0004FF480530025C4F8083716481649174AED
:10C00000C4F80C0740F20113C4F81017C4F8142741
:10C01000A4F81837A4F81A5704F2347029465022AD
:10C0200013F054FE01224FF6FF73A4F81C5784F856
:10C030001E57C4F82457C4F82857C4F82C57C4F81E
:10C040008857C4F8845784F83027A4F8323720463C
:10C0500038BD00BF010A17000300010117000300EB
:10C0600080F80C17704700BF04290BD8DFE801F0F7
:10C070000B130B1B0300104BC0F80E3740F20313D9
:10C08000A0F8123770470D4BC0F80E3740F201137D
:10C09000A0F8123770470A4BC0F80E3740F2011370
:10C0A000A0F812377047074BC0F80E374FF4817372
:10C0B000A0F81237704700BFF700640017000300B4
:10C0C0001700020080000600F0B5BF4E80F81C1774
:10C0D0008DB080F81D2704460EF0A8FA0EF0AEFAD7
:10C0E0000EF06CFA3369B949039303A8FFF776FDA4
:10C0F00018B1002528460DB0F0BD0120FFF766FD00
:10C100000120FFF761FD0120FFF762FD09A8FFF79D
:10C1100061FD099B9B0705D5AD4BD3F80435002B7A
:10C1200000F0FE800023AB4A94F80D57049209A951
:10C130000120CDE909330B938DF82450FFF756FD0C
:10C140000028D6D194F81D370B90CDE90900181EB0
:10C1500018BF012094F81C578DF82700049A8DF819
:10C16000263009A940208DF82550FFF73FFD002813
:10C17000BFD194F80C170990034661F30003CDE991
:10C180000A00049A8DF8243009A9A020FFF72EFD9B
:10C190000028AED1D4F808370A900B90049A09937E
:10C1A00009A9A120FFF722FD0028A2D194F81C378D
:10C1B000002B40F0B98094F81D37002B48D00023A5
:10C1C000B4F81477049A0993022509A92320CDE92C
:10C1D0000A338DF82450ADF82670FFF707FD0028CC
:10C1E00087D1CDE9090094F81D77B4F816370B9084
:10C1F000049A8DF8245009A920208DF82670ADF8F6
:10C200002830FFF7F3FC00287FF473AF0990CDE9E5
:10C210000A0094F81837049A8DF8245009A92220AE
:10C220008DF82630FFF7E2FC00287FF462AFCDE9FD
:10C23000090094F819370B90049A8DF8245009A935
:10C2400021208DF82630FFF7D1FC00287FF451AF74
:10C2500004A8FFF7C9FC00287FF44BAFCDE9070025
:10C2600040F0010307A902208DF81C30FFF7C4FC41
:10C2700000287FF43EAF2046FEF746FC0546002826
:10C280003FF437AF04F12000FEF728FE337D52491A
:10C290008DF808300D2202A8FFF7A2FC00287FF4D9
:10C2A00028AF94F81D37002B40F08880032200212E
:10C2B00001200BF061FEC4F8240700283FF419AFF9
:10C2C00005AB0326CDE900634449454800234FF4FC
:10C2D000A0620CF007FE3246002101200BF04CFE5C
:10C2E000C4F8280700283FF404AF06ABCDE900638B
:10C2F0003C493D480023C8220CF0F4FD3B4B4FF471
:10C3000080021A603A4B00930023184601224FF432
:10C3100080710DF0F1FDC4F82C0700F069FCE9E62E
:10C32000022005F06DFAFDE60990CDE90A00B4F8A7
:10C330000E37049AADF82630012509A923208DF87F
:10C340002450FFF753FC00287FF4D3AECDE9090059
:10C3500094F81C77B4F810370B90049A8DF8245099
:10C3600009A920208DF82670ADF82830FFF73EFC93
:10C3700000287FF4BEAE0990CDE90A0094F8123788
:10C38000049A8DF8245009A922208DF82630FFF751
:10C390002DFC00287FF4ADAECDE9090094F81337E9
:10C3A0000B90049A8DF8245009A921208DF826308D
:10C3B000FFF71CFC00283FF4FEAE9AE604F11000E3
:10C3C000FCF7ECFF72E700BF183F0400FDBB020062
:10C3D0000070024000600020003F0400103F040095
:10C3E0009DBC0200143F040009BC020000E100E013
:10C3F00001BC020000B5084B85B01B7D01910846C9
:10C400008DF80C3014F07BFB019982B203A8FFF782
:10C41000E7FB05B05DF804FB183F040000B583B0EE
:10C4200008460DF10601ADF80620FFF7DBFB20B949
:10C430009DF8060003B05DF804FB002003B05DF832
:10C4400004FB00BF70B4234B0E4605460FCB85B0EE
:10C450006C4607C49DF900202380B24234D09DF978
:10C460000130B34230D09DF90230B3422CD09DF957
:10C470000330B34228D09DF90430B34224D09DF953
:10C480000530B34220D0FEB19DF90730B3421BD036
:10C490009DF90830B34217D09DF90930B34213D04B
:10C4A0009DF90A30B3420FD09DF90B30B3420BD047
:10C4B0009DF90C30B34207D09DF90D30B34203D043
:10C4C000002005B070BC7047012085F81E6705B0DC
:10C4D00070BC7047303F040090F91E07704700BFE2
:10C4E00080F83017704700BF70B5044682B0D0F8AE
:10C4F0002C070D460DF082FD4FF47A72064600239C
:10C50000A90DA80213F090F9002302460421D4F8E3
:10C510002C0700930DF046FD0EB102B070BD0096E1
:10C52000D4F82C073346324603210DF03BFD02B010
:10C5300070BD00BF70B500F5E66400F5F06500263B
:10C5400054F8040F20B1FDF72FFE08B10136F6B202
:10C55000AC42F5D1304670BD132906D800EB8101FD
:10C56000D1F8340708B1FDF71FBE0020704700BFA7
:10C57000B0F83207704700BF01290CBFB0F80E07B2
:10C58000B0F81407704700BF13299ABF00EB810170
:10C59000D1F834070020704710B5064C0021D4F8BC
:10C5A00028070BF0F9FFD4F824070021BDE810405C
:10C5B0000BF0F2BF4CD4012090F8303703B970472C
:10C5C00010B582B0D0F82C470CF07CFE0023024658
:10C5D0000093204601210DF0E5FC02B010BD00BF24
:10C5E000F0B583B0002405462346D0F82C0700940C
:10C5F000224603210DF0D6FC05F5E66605F5F06749
:10C6000056F8040F20B1FDF7CFFD08B10134E4B2B4
:10C61000BE42F5D195F8303743B1211E18BF012134
:10C620000C2003B0BDE8F0400EF06ABB03B0F0BDD3
:10C630000148FFF7BDBC00BF4CD4012010B582B04B
:10C64000CDE90021FDF7D6FA00F1E004DDE9002193
:10C65000204600F0A9FA204602B0BDE8104000F0E4
:10C66000BBBA00BF2DE9F04F83B00446084691469F
:10C670009A46019114F043FAC71CFFB206463846A9
:10C680000BF0B8FB01230546F21800F8013B0199B5
:10C6900013F0F4FAEB1904F1E0064FF0000830460D
:10C6A0005246494603F8018C1FFA87FB00F03EFA18
:10C6B0005A46294604F11C00FDF728FB874228460C
:10C6C00005D00BF0B1FB404603B0BDE8F08F0BF096
:10C6D000ABFB07F1010806E0B4F8EC305BB100F009
:10C6E0002BFA002832DBB4F8EE50ADB245454FF4DA
:10C6F000FA713046F0DD39F807503D44013506E067
:10C70000B4F8EC305BB100F017FA00281EDBB4F887
:10C71000EE309BB2AB424FF4FA713046F0DDB4F824
:10C72000EE2092B2023AA2EB0B0B1FFA8BF8B91C67
:10C7300049444246484613F0AFFAC245C3D90023E4
:10C74000404609F8083003B0BDE8F08F4FF000080C
:10C75000404603B0BDE8F08F70B514460D46FDF7B6
:10C7600049FA082C06D1D0F8DC301BB12846BDE8C8
:10C770007040184770BD00BFC0F8DC10704700BFA4
:10C7800010B504469C30FDF73FFB00B910BD04F125
:10C790005C00BDE81040FDF737BB00BF10B41C467D
:10C7A000BDF804301AB100205DF8044B70472246F2
:10C7B0005DF8044BFFF756BF2DE9F041164682B0F5
:10C7C00000F1E0078C461A4604461D463846002311
:10C7D0003146CDF801C08DF800308DF80530ADF848
:10C7E000065000F0A3F904F11C0006226946FDF78B
:10C7F0008DFA062804D00024204602B0BDE8F0815E
:10C800004FF4FA71384600F097F90028F3DBB6F8D8
:10C81000068008F1080806E0B4F8EC305BB100F0DF
:10C820008BF90028E7DBB4F8EE309BB298454FF463
:10C83000FA713846F0D8B4F8EE40083CA4B222466B
:10C8400006F10801304613F027FAA54288BF0023FD
:10C85000204688BF335502B0BDE8F0812DE9F04194
:10C8600082B01D4616460B4600F1E0074FF0000C63
:10C8700004462A4638463146CDF8013001238DF86A
:10C8800000C08DF80530ADF8065000F04FF904F106
:10C890001C0008226946FDF739FA082804D0002454
:10C8A000204602B0BDE8F0814FF4FA71384600F03E
:10C8B00043F90028F3DBB6F8068008F1080806E023
:10C8C000B4F8EC305BB100F037F90028E7DBB4F8DE
:10C8D000EE309BB298454FF4FA713846F0D8B4F870
:10C8E000EE40083CA4B2224606F10801304613F09F
:10C8F000D3F9A54288BF0023204688BF335502B034
:10C90000BDE8F0812DE9F04182B01D4616460B4688
:10C9100000F1E0074FF0000C04462A463846314645
:10C92000CDF8013003238DF800C08DF80530ADF847
:10C93000065000F0FBF804F11C0008226946FDF7E0
:10C94000E5F9082804D00024204602B0BDE8F081B3
:10C950004FF4FA71384600F0EFF80028F3DBB6F830
:10C96000068008F1080806E0B4F8EC305BB100F08E
:10C97000E3F80028E7DBB4F8EE309BB298454FF4BB
:10C98000FA713846F0D8B4F8EE40083CA4B222461A
:10C9900006F10801304613F07FF9A54288BF002355
:10C9A000204688BF335502B0BDE8F08130B585B070
:10C9B00004461E496846FFF77DF869462046FDF7A4
:10C9C00065FB25466846FFF73FF8194B45F81C3BC9
:10C9D00018496846FFF76EF869462846FDF7B8F82B
:10C9E0006846FFF731F814496846FFF763F869466F
:10C9F00004F15C00FDF7ACF86846FFF725F80F4935
:10CA00006846FFF757F8694604F19C00FDF7A0F867
:10CA10006846FFF719F804F1E00000F061F8002320
:10CA20002046C4F8DC3005B030BD00BF703F0400C4
:10CA3000883F0400403F0400603F0400503F040072
:10CA400038B50446FDF7FAFA04F1E000002100F0E1
:10CA500051F804F15C0504F11C000021FDF796F883
:10CA60009C3428460021FDF791F820460021FDF76F
:10CA70008DF8284605490122FDF7BEF920460449F4
:10CA80000022FDF7B9F9012038BD00BF59C70200E7
:10CA90003DC60200F0B585B005460E46FDF7E0FA4A
:10CAA0000446A8B14FF6FF7305F11C0105F15C00C7
:10CAB000AB800191029005F19C070748039703237F
:10CAC00001AA3146FDF730FD03280CBFAE800024DB
:10CAD000204605B0F0BD00BF3CDB012000207047C0
